:020000041000EA
:1000000000B5324B212058609868022188439860DF
:10001000D860186158612E4B002199600221596106
:100020000121F02299502B49196001219960352056
:1000300000F044F80222904214D00621196600F024
:1000400034F8196E01211966002018661A6600F04E
:100050002CF8196E196E196E052000F02FF8012189
:100060000842F9D1002199601B49196000215960AB
:100070001A491B48016001219960EB211966A021F2
:10008000196600F012F800219960164914480160C1
:100090000121996001BC002800D000471248134993
:1000A000086003C880F30888084703B5996A0420EC
:1000B0000142FBD001200142F8D103BD02B5186610
:1000C0001866FFF7F2FF186E186E02BD00000240BE
:1000D000000000180000070000035F00212200005C
:1000E000F4000018222000A00001001008ED00E03C
:1000F00000000000000000000000000074B24E7A12
:1001000000200420F7010010C3010010C5010010F9
:10011000C1010010C1010010C1010010C101001097
:10012000C1010010C1010010C1010010C701001081
:10013000C1010010C1010010C9010010CB01001065
:10014000CD010010CD010010CD010010CD01001037
:10015000CD010010CD010010CD010010CD01001027
:10016000CD010010CD010010CD010010CD01001017
:10017000CD010010CD010010CD010010CD01001007
:10018000CD010010CD010010CD010010CD010010F7
:10019000CD010010CD010010CD010010CD010010E7
:1001A000CD010010CD010010CD010010CD010010D7
:1001B000CD010010CD010010CD010010CD010010C7
:1001C00000BE00BE00BE00BE00BE00BE00F04BF888
:1001D000103800BEF2EB887170540010A05400106B
:1001E0003402001090A31AE700202149086006C8D5
:1001F00081F3088810471F48006800282FD10DA4FC
:100200000ECC002902D000F012F8F9E71A491B4A77
:10021000002000E001C19142FCD1194988471949E9
:1002200088471949884700BEFDE701C901C29A42C3
:10023000FBD37047A0540010C0000020940400209D
:1002400074580010000004200000042074580010AE
:1002500000100420001004200000000070470B482C
:1002600001F0F6FE0047EFF30580C0B270470000D2
:1002700008ED00E0000000D09804002028120020C3
:10028000911A00105D030010811B001057560000EA
:1002900006005250ABB36053FC51001006005250A0
:1002A000861C03020C520010060052505422A29DDC
:1002B0001452001005005250DE65F46874580010A6
:1002C000F8B5C0460448054B10B5834203D0044B33
:1002D000002B00D0984710BD940400209404002007
:1002E0000000000006480749091A8B10C90FC918F9
:1002F00010B5491003D0044B002B00D0984710BD17
:1003000094040020940400200000000010B5074C65
:100310002378002B09D1FFF7D5FF054B002B02D026
:10032000044800E000BF0123237010BDA005002099
:100330000000000018510010054B10B5002B03D031
:100340000449054800E000BFFFF7CCFF10BDC046E0
:1003500000000000A405002018510010F8B5802509
:10036000D024AD042E0002F00DF9192000F026F87B
:100370002406054F6562FA20A66100F01BFF3800D5
:10038000656102F0C9F8F6E718510010094A8300C8
:1003900094464022634410B51C68C0006240C024EB
:1003A00014408022520113431C60034B9C4660445E
:1003B000416010BD04C00140004001400123D02233
:1003C0008340120693629361094A83009446402257
:1003D00063441968C0004A40C02111408022520184
:1003E00013431960034B9C460523604443607047E8
:1003F00004C0014000400140F8B5EFF3108772B629
:100400000E4E3368002BFCD0BFF35F8FCB08C418AF
:100410000725A446C45C01230D40AB4018002040D2
:10042000234208D1624623431370BFF35F8F3060CD
:1004300087F31088F8BD100001F0A4FB2C0100D058
:10044000F8B5CE4647468C4680B5EFF3108872B6B5
:10045000214D2C68002CFCD0BFF35F8F9A422CD822
:10046000D4080721055D0619012411408C402C4257
:100470001FD007218946063909E0D408055D061911
:100480004C460F001440A7403C002F4211D00132CF
:100490009342F2D201204042BFF35F8F00220E4B05
:1004A0001A6088F3108800280FDB0CBC9046994630
:1004B000F8BD2C4310003470EEE7BFF35F8F0023CC
:1004C0002B6088F31088012040426346002BECD05B
:1004D000089801F057FBC0462C0100D0024B186869
:1004E0008007C00F7047C04600C006400021044B83
:1004F000044ABFF35F8F02C39342FAD17047C046EC
:10050000000100D0800100D0044A1078431CDBB207
:10051000172B00D9102313707047C04680030020AA
:1005200000B5054B83B00100009318221F23034838
:10053000FFF786FF03B000BD68510010600A00207D
:1005400001238340002904D0034A1360034A136047
:100550007047034A1360FBE780E200E000E100E03F
:1005600080E100E001238340014A13607047C046E8
:1005700000E200E0084B10309B688000C358002B5D
:1005800007D0064A00209B1A2F229A424041C0B24F
:1005900070470020FCE7C04600ED00E08403002027
:1005A000024B10309B688000C058704700ED00E09F
:1005B00070B50D00EFF3108672B60F4A1368002B6A
:1005C000FCD0BFF35F8F0D4B10309B6884001B592C
:1005D0000B4A934203D09D4201D001F0EBFA074B46
:1005E0009B681D51BFF35F8FBFF35F8F0022024BEB
:1005F0001A6086F3108870BD240100D000ED00E081
:10060000CD010010F0B557464E464546DE46E0B5F2
:10061000894683B005001700EFF3108A72B65E4A70
:100620001368002BFCD0BFF35F8F00205B4B185684
:100630009B4600286DDB5A464400594E2418A400FE
:10064000331998469B7910351370564BAA009B6856
:1006500001929B589C469B1B2F2B29D80122614657
:100660009143CB79BB4208D86BE053009B189B00A9
:10067000F318DD79BD4252D9190006228A56002AA4
:10068000F3DABD260B1D9B46360243465C46043B0F
:100690001B1B1B05444C5B0D23438B80887141461B
:1006A0008A714A46414B8E800B60CF718A601BE095
:1006B0003F4B9C4542D142463E4B023413803E4B59
:1006C0003619043B9E1B3605374B760D1E433B4BBC
:1006D00056809380FF23D771937143464A469A60B0
:1006E000012342461A43944661462E4B019A9B6869
:1006F0009950BFF35F8FBFF35F8F0022264B1A60C4
:100700008AF3108803B03CBC90469946A246AB469B
:10071000F0BD01F04FFA5B46002018568BE70B1D29
:100720009B468B8804345B051B155B4436199E1B66
:10073000E0233605760D1B021E43A6E701F03AFAC8
:10074000B9E745460B001E489B1B5B415843000D13
:10075000184B2B80A31C9C46B4446546164B0434AE
:10076000043B5B1B1B05104D5B0DAC462B43454604
:1007700036196B800B1F9E1B6346A87148463605D1
:10078000760D1E43094BAE80EF71A8600B604346A7
:1007900013439C46A8E7C046240100D05E0F00200A
:1007A0008403002000ED00E000E0FFFF01488047E7
:1007B000CD01001000A1FFFFB403002000BDFFFF2A
:1007C000AAAA0000F0B5DE4657464E464546E0B5BB
:1007D0000C0083B0EFF3108A72B65A4A1368002BEC
:1007E000FCD0BFF35F8F1022914681444A46564B9E
:1007F00096009B689D59554B98469D4205D0A54251
:1008000016D0534FEB1B2F2B14D94F4B9B689D5188
:10081000BFF35F8FBFF35F8F00224A4B1A608AF3EA
:10082000108803B03CBC90469946A246AB46F0BD4A
:100830001D00EAE7012383409B465A46454B1B684F
:100840001A4000925A46444B1A60BFF35F8FFFF77D
:100850000AFD0190002803D0814501D001F0AAF9DA
:1008600001232A009A4393689C4208D160E04B0020
:100870005B189B00FB189968A14211D01A00062151
:1008800051560029F3DA009B002B05D05A46334B12
:100890001A60304B1A60B8E75A462F4B1A60B4E71B
:1008A00006215956002922DB4A00501880003C18C6
:1008B0008046A0689860E079D8710620205698712B
:1008C000A0797F2824D8A488F81A64052415444404
:1008D0000019E0240005400D24022043988052189E
:1008E0001F4B9200BF181A781970BA71CBE70199A3
:1008F000002910D1FF3191711A49918018490A7865
:100900009A71194ADB1B5B415A43120D0A70BAE710
:10091000BD200002E2E7154A1549D21A083A5002F2
:10092000400D01439980134952080A43DA80AAE72F
:100930000621515613000029B6DA019A002AEAD19D
:100940004546DBE7240100D000ED00E0CD010010BA
:100950008403002000E100E080E100E080E200E0AC
:100960005E0F002000BDFFFFAAAA0000BE0300200A
:1009700000F0FFFF00F8FFFFF8B501250400054374
:10098000FFF771FC0300EFF3108672B621490A6885
:10099000002AFCD0BFF35F8F1F4A20001F49801A36
:1009A00040414143090D1E489B00876849B2FF58EA
:1009B000AF421CD00623D3568B421CD01223D356F1
:1009C0008B4222D01E23D3568B4220D02A23D356CB
:1009D00003208B4210D0134B1A781970A271BFF309
:1009E0005F8F00220B4B1A6086F31088F8BD826877
:1009F0000D48D050EFE7002043001B189B00D21891
:100A0000FF239371094B9380E5E70120F4E702206F
:100A1000F2E7C046240100D084030020AAAA000007
:100A200000ED00E05E0F0020CD01001000BDFFFFD3
:100A3000054B064A1360064A136053609360D36007
:100A400013615361936170478080808000E400E00F
:100A500004E400E0D02300B51B061B680100074832
:100A600083B0C018064B002200930523FFF7E8FC73
:100A7000002801DB1F23181A03B000BD580F002007
:100A800084510010024B9C4661448900016070470C
:100A90004000003483680B4810B5844661446244CA
:100AA000090112019A18591854684B6801209C4298
:100AB00001D802D00020C0B210BD12680B689A4263
:100AC000F9D8F7E7FFFFFF0F0A4B1968EFF3108023
:100AD00072B60A68002AFCD0BFF35F8F1B68BFF3B1
:100AE0005F8F00221A6080F3108840BF0020002131
:100AF0007047C046240F0020F8B557464E4645467D
:100B0000DE46E0B5434D81468A466A68EFF31088B9
:100B100072B61368002BFCD0BFF35F8F2E68B47BD6
:100B2000002C3ED0670033683F19033FDA19537831
:100B3000B373002B00D1F3730023937053701370C1
:100B4000A968354A8C464946A218120162441160D0
:100B5000514651603149D36091603268D219937027
:100B600053701370737B9B46002B35D02200190005
:100B7000B068736898473268002820D05B465846B2
:100B80005B005B44D719033BB870D118D35C002BD2
:100B900000D07B705B460C7073735C451DD00026E3
:100BA00026E06B68BFF35F8F1C6088F3108801201C
:100BB00040423CBC90469946A246AB46F8BD5B46D7
:100BC0005B005B44033BD3189C70D119D25D002AB3
:100BD00000D05A705B460B7074734A465346287DAA
:100BE00000F036FC061EDAD02100286800F076FE00
:100BF000EB686A681B19013B1B78BFF35F8F00210C
:100C0000116088F310880020002ED2D118022043F2
:100C1000CFE7C046CC030020FFFFFF0FC90A00103A
:100C2000F8B5574645464E46DE46E0B599460CAB0C
:100C300019780DAB1B78050090469A460768002985
:100C400012D1BE7B002E45D074003B68A419033C32
:100C50001B195A783100BA73002A00D1FA730022A6
:100C60009A705A701A7003E00E004C006418033C2E
:100C70002C4B00229C46AB6861449C4643460901CC
:100C800061440B604B464B600A9B8B600B9BCB60B7
:100C90003B681B199A705A701A707B7B9B46002B1D
:100CA0002CD032005946B8687B6898473A680028CB
:100CB00017D05B4658465B005B441419033BA07099
:100CC000D118D35C002B00D063705B460E707B7331
:100CD000B34514D030003CBC90469946A246AB4682
:100CE000F8BD5B465B005B44033BD3189E70111953
:100CF000125D002A00D05A705B460B707E7342462C
:100D00004B46287D00F0A4FB041E06D05346002B62
:100D100003D13100286800F0E1FD0E9B002BD9D0F3
:100D20001C70D7E7FFFFFF0FF0B5DE464E46574673
:100D300045460023E0B58DB00A936B4B8200D35833
:100D40000B90994600239B464B46079300F020FBEF
:100D5000079C06000F006268EFF3108572B61368F7
:100D6000002BFCD022000794BFF35F8F2468637BC5
:100D70009946002B67D092685C4B90464B441B0110
:100D8000984443461A685B6810001900801BB941FB
:100D900000295FDD0B9800F05BFB002300269846DE
:100DA00000279A46079C6368BFF35F8F5A461A6014
:100DB00085F310885346002B08D10028C6D10DB00A
:100DC0003CBC90469946A246AB46F0BD0A9B4146C4
:100DD00018024B461843D047089009916268EFF318
:100DE000108572B61368002BFCD00794BFF35F8F99
:100DF0000899099A002A48DB114303D0079B1B6915
:100E0000002B5DD1079B1B68DA7B002A07D05100BD
:100E10008A1819688C4649466244033A51704A461A
:100E2000DA734B46079A013BD168CA5C0132CA5457
:100E30005B46079A13615368BFF35F8F5A461A6087
:100E400085F3108882E700230026984600279A46FB
:100E50000020A7E7002901D100289BD10021200014
:100E600000F09EFC43461E685F689B68079A9A469E
:100E70004346DB689846D3684B44013B1B780A9392
:100E80001B020343136100208CE72369002BB9D0B8
:100E900033003C005B1A94411A002300A74219D882
:100EA0009F421BD05946049101210391494602916A
:100EB00041460191514607980091FFF7B1FEB7E70F
:100EC00000F066FA089A099B06000F0092197B4110
:100ED0009942E5D901225242D317E3E79642E1D97C
:100EE00001225242D317DDE7080F0020FFFFFF0F5A
:100EF00010B5124C6368002B04D00A211048FFF78C
:100F0000C1FD10BD23000F4A1021206800F066FBD0
:100F1000032000F031FA032000F00CFB03200A4903
:100F200000F050FAFFF7F0FA084B9C4603236044A8
:100F30002375074B80006060DC60DEE7CC03002097
:100F4000240F0020950A0010290D001040000034E5
:100F5000080F002000487047CC030020F0B557462A
:100F60004546DE464E46E0B585B0019310AB1B7892
:100F700000270393002380469A46009243465A680E
:100F8000EFF3108972B61368002BFCD0BFF35F8FAC
:100F900043461D68AC7B002C4FD066002B68361989
:100FA000033E9B195A78AA73002A00D1EA7342467D
:100FB0009F705F701F709268524B94460099019A1F
:100FC000E3181B01634419605A600E9A9A600F9AE5
:100FD000DA602B689B199F705F701F706B7B9B465C
:100FE000002B46D022001900A8686B6898472A6831
:100FF000002831D05B4658465B005B449619033BA2
:10100000B070D118D35C002B00D073705B460C70AD
:101010006B735C452ED04346DB681B19013B187887
:1010200043465B68BFF35F8F1F6089F310885346A8
:10103000002B2ED10002204307E05B68BFF35F8FD7
:101040001C6089F310880120404205B03CBC9046EA
:101050009946A246AB46F0BD5B465B005B44033B52
:10106000D3189C709119925D002A00D05A705B468B
:101070000B706C734346187D009A019B00F0E8F9F1
:1010800082460028C7D043462100186800F026FC9D
:10109000C1E7039B002B32D00E9B00200F9998478D
:1010A000030004000D000B4329D000290DDA00983D
:1010B000019902000B00121BAB41994215D81AD0BE
:1010C00000920193039B9A4658E700F061F90200F1
:1010D0000B00A4185D412000290000900191AB4253
:1010E00003D8EFD100998A42ECD901235B42DC1787
:1010F00000930194E6E700999142E1D9F5E70020D9
:10110000A3E7C046FFFFFF0FF0B504000D00062661
:101110007642F717C64636196F4100B58F4213D88D
:1011200010D000F035F932003B00121A8B41002B31
:1011300014DC002B37D02900200000F033F904BC68
:101140009046F0BD8642ECD90026002700F020F939
:1011500032003B00121A8B41002BEADD30003900CF
:10116000FFF7CAFC0028E6DB00239846BC460F4A7E
:101170000F4F7B6A9C4504D8B96A8E42DBD99C45E7
:10118000D9D11168EFF3108072B60B68002BFCD038
:10119000BFF35F8F1368BFF35F8F4146196080F321
:1011A000108820BFE5E7002AC5D0D7E7240F00202C
:1011B0000040054070B5060000F0EAF8FA2204008D
:1011C0000D00002330000021920001F00BF80019FF
:1011D00069418D4205D802D0FFF796FF70BD844269
:1011E000FAD901204042C117F6E7C046F8B5CE460D
:1011F000474680B506000C00FFF77EFC00280CDC9B
:101200002D4B0020596A8C4203D89B6A0130B342AF
:1012100045D30CBC90469946F8BD20BF274D6A685F
:10122000EFF3108772B61368002BFCD0BFF35F8F0B
:101230002B68C1B29C465B7B8B4235D0FF230340B9
:101240005A00914662461268994490464A46424482
:10125000033A9278002A1DD0EA68000A9046434477
:10126000013B1B78C0B2834221D06B68BFF35F8F14
:1012700000221A6087F310880F4A0020536A9C42AC
:10128000C7D8926A0130B242C3D2E41A601E8441C8
:10129000E0B2BEE72B699842E7D12A61E5E7641A1C
:1012A000601E8441E0B2B4E7FF230340D4E7604608
:1012B00000F014FBD9E7C04600400540CC030020F5
:1012C000F0B5D6464F464646C0B5EFF305833F22FC
:1012D000134018001038EFF3108C72B6204D2A68B6
:1012E000002AFCD0BFF35F8F0122110081401D4C0A
:1012F000884661631C4917000E788A463100C14058
:101300000F400A4215D019498200646A51588C4234
:1013100019D3174BD25843469E4353461E70BFF312
:101320005F8F00232B608CF31088002A06D0904733
:1013300004E0BFF35F8F2F608CF310881CBC9046D5
:101340009946A246F0BD0B4A9B00904643441A685A
:101350001A60BFF35F8F00232B608CF31088EDE7DA
:10136000280100D000400540610F0020300F002010
:1013700050090020D03F054010B50100024A034843
:10138000FFF73AF810BDC046A05100105D0F0020D5
:10139000034B596A0A00986A596A8A42FAD170471F
:1013A00000400540064A536A9942FCD807D1044BD5
:1013B00002E05A6A914202D19A6A8242F9D3704796
:1013C0000040054070B504000D00EFF3108672B6C2
:1013D0001A4A1368002BFCD0BFF35F8F002D1BD07F
:1013E0002000FFF7DDF8164981420AD02000FFF700
:1013F000DFF801212000FFF7A3F80123A340114AE1
:101400001360114BA400E550BFF35F8F00220B4B1C
:101410001A6086F3108870BD0B4BA200D5500122D4
:10142000A2400A4920000B7893430B700449FFF750
:10143000C9F900212000FFF783F8E5E7280100D073
:10144000C11200103860054050090020610F0020D3
:10145000F0B54F46D6464646C0B50700304C616AE7
:101460000D00A66A616AA942FAD18B4208D805D05C
:1014700001201CBC90469946A246F0BDB242F7D965
:10148000EFF3108972B6274801680029FCD0BFF33A
:101490005F8F01252449BD408C460978204C0E0001
:1014A0002E438846F1B28A46614650460870391D7F
:1014B0001E48890065630A51B9000B50216A00205B
:1014C000294219D0616A0800A66A616A8142FAD18C
:1014D0008B4219D801D1B24216D8C2451DD0104B4B
:1014E0001F201D625D6301230740BB40104A1E3868
:1014F0001360634642461A70BFF35F8F0022094BA8
:101500001A6089F31088B4E70020BFF35F8F0022D0
:10151000044B1A6089F31088ABE70120ECE7C04662
:1015200000400540280100D0610F0020300F00204E
:1015300080E200E010B5EFF3108472B60A490B6840
:10154000002BFCD0BFF35F8F01238340074A08487C
:10155000136202789A430270BFF35F8F00230B601F
:1015600084F3108810BDC046280100D0004005401B
:10157000610F002070B505000E001400002924D072
:10158000002A24D080686B689847296800280ED00C
:1015900063001B197200033B9219CB18033A9E702B
:1015A00088188A5C002A14D1047030000EE07300A1
:1015B0009B196200033B1219CB18033A9C708818E0
:1015C0008A5C002A00D05A700670200070BD0800A6
:1015D000FCE75A7004703000F8E7C04630B583600D
:1015E0000023CCB243730133047342608373C4732A
:1015F0000D000068012C06D9421C0133DBB21370C8
:1016000003329C42F9D1FF2129404B005918002395
:1016100040180338437030BDF8B5CE464746060043
:101620000C0080B5002907D04D0003686D18033DFC
:101630005A195778002F04D120000CBC90469946C7
:10164000F8BD7900C9190339884643445978894659
:1016500000215970517073683A00210080689847E2
:101660003368002814D042469A18947059195B5D6B
:10167000002B00D053700F70270049463000FFF751
:10168000CBFF390002003000FFF774FF0400D3E7FE
:10169000424641465D19AF709A185B5C002B00D042
:1016A0006B701470E9E7C046F0B557464546DE4614
:1016B0004E46E0B50D006B0001685B19DF1E0400AB
:1016C000C85D83B00192CA1900284CD043001B1892
:1016D000033BCB185E78B446002E16D1019E002E37
:1016E0003ED0E67B002E04D073009B19CB18033B41
:1016F0005D70E57300282FD10023537003B03CBC0C
:1017000090469946A246AB46F0BD72006244033A49
:1017100089184A78904600224A7091465A70010012
:1017200032002000FFF726FF43468246002B07D0F9
:101730005B0021684344033BCB185A78002A16D13A
:10174000424651462000FFF715FF2168019BCA1948
:10175000002BC6D10028CFD043001B18033BCB1869
:1017600000219970C8E7019B002BBAD1C4E7500053
:1017700080180338091848788346484648705870DE
:1017800041462000FFF7F6FE594680462000FFF74D
:1017900043FF414602002000FFF7ECFE8046CFE702
:1017A000F0B54E464546DE465746E0B5467B04005A
:1017B00075000068AD19033D83B00191415D421988
:1017C00000294ED04B005B18033BC3185F78BC4622
:1017D000002F18D1019D002D40D0E57B002D04D0B5
:1017E0006B005B19C318033B5E70E673002931D1AF
:1017F000002330005370617303B03CBC904699469F
:10180000A246AB46F0BD7A006244033A80184278A3
:1018100093460022427091465A7020003A00FFF72A
:10182000A9FE5B468046002B07D05B0021685B4425
:10183000033BCB185A78002A17D15A46414620005C
:10184000FFF798FE019B010020684219002BC4D1CC
:101850000029CDD04B005B18033BC31800209870C3
:10186000C6E7019B002BB8D1C2E7500080180338AF
:1018700009184878824648464870587059462000F2
:10188000FFF778FE53468346002B07D05B002168A4
:101890005344033BCB185A78002A06D15946524686
:1018A0002000FFF767FE8346C7E750008018033823
:1018B000091848464F784870587051462000FFF785
:1018C00059FE390081462000FFF7A6FE4946020076
:1018D0002000FFF74FFE8246E0E7C04670B50400E7
:1018E00000292CD0437B8B422ED00568480040183D
:1018F000033828188278002A21D053009B18033B14
:10190000EA5CEE188A4202D11BE0002A08D053009C
:101910009B18033BEB185A788A42F6D142785A70EA
:1019200000230122837043702000FFF7BDFE617B1E
:1019300002002000FFF71EFE6073012000E000207F
:1019400070BD43783370EBE701221900FFF7ACFE5E
:1019500060730120F4E7C04610B50400FEF7D4FD23
:1019600001002000FFF78EF8FF232371BFF35F8F84
:1019700010BDC04610B50400FEF7C6FD01002000F2
:10198000FFF780F8FF23A380BFF35F8F10BDC04631
:1019900010B504000120FEF7C3FD034BC3189B00E4
:1019A0002360BFF35F8F10BD40000034F8B5040022
:1019B00006200D0000F062FA002845D02B4B2C4980
:1019C000E3185A4253418022D20394465B421340AB
:1019D000284A63441360284A136018008A689043B9
:1019E000FBD1224B8021E3185A425341234A5B002A
:1019F00049000620995200F041FA2900C00000F089
:101A000055FBC30921D140270122260080256262AF
:101A1000A36200232C36AD0135432B60062000F075
:101A20002DFA3900800000F041FB6023E26A534048
:101A30006E221A4080235B0133431A60104B2363EC
:101A400010232B600D3BA364F8BD0E4A934203D9CB
:101A500000230D4F0D4AD8E77F2210400130400887
:101A60009F011A003F180300CFE7C0460080FCBF6B
:101A700000C0004000E0004000F00040640F002083
:101A800001030000FEFF0000C0FF3F00FFFF000059
:101A90002C4B2D4A70B51A602C4A2D4B2D491A60DB
:101AA00010008B689843FBD12B4C2C4B9C4209D2E5
:101AB000013B1D1BAD080135AD002D1908CC984721
:101AC000AC42FBD100F07CF8254A214B1A60214A38
:101AD0009368DB018033FBD14022224B224C234D03
:101AE0009A675A671A67DA66AC4208D22368200000
:101AF000002B21D00834FFF73DFFAC42F6D31C4C3D
:101B00001C4DA168C022280000F0DCFBA560FEF798
:101B1000EDFCFEF78DFFFFF7EBF9174C174B9C42DE
:101B200009D2013B1D1BAD080135AD002D1908CCB4
:101B30009847A542FBD170BD0834FFF70DFFAC42BA
:101B4000D4D3DCE700E00040BFCDFBFEFE7F3C00CD
:101B500000F0004000C000407C0400208C04002005
:101B6000FFFFFF0100F00140740400207C0400200E
:101B700000ED00E0000000208C0400209404002010
:101B800000BEFDE70FB400B5084883B000F0C4FC08
:101B9000049B002B07D005A91800019100F038FA2A
:101BA000034800F0B9FC00BEFDE7C046C451001078
:101BB000D451001010B50148FFF7E4FFD8510010D0
:101BC00030B50C2083B000F0B3F9FEF787FC002895
:101BD0000ED0944B944A1A605A609A60DA601A6187
:101BE0005A619A61DA611A62904A5A6203B030BD52
:101BF0008F4CA06700F0F0F901228E4B1A60636CE5
:101C0000012BFCD103228C4B1A60894A936B012B68
:101C1000FCD101330121894A89480093043300F043
:101C200033F90523874A00930121874800F02CF9F6
:101C3000864B5A68FF2A02D8802252005A608022BE
:101C4000784C7D4B21691201804D1A60002905D026
:101C5000606900F02BFA01300138FDD1E0217B4BA7
:101C600002201A681140802252012A43116019682B
:101C7000484003210140116004219A681142FCD0C0
:101C80008022802192012A430901116080225200A2
:101C90005A606F4B23616F4B5968FF2900D85A6017
:101CA00003226C48634B01211A60020093681942B9
:101CB000FCD0E02513681D4080235B0103431D60B9
:101CC00012684A400321114019600221614A936859
:101CD0001942FCD0802380219B0103430901196034
:101CE00080215D4B4900516063615C4B5A68FF2A5B
:101CF00000D8596080225A4BE1691201574D1A6091
:101D0000002905D0606900F0D1F901300138FDD11A
:101D1000E02252490B681A4080235B012B431A6072
:101D2000802380229B012B4312011A6080223E4BAC
:101D300052004A60E3614B4B5968FF2900D85A6052
:101D40008022494B216A1201464D1A60002905D0B4
:101D5000606900F0ABF901300138FDD1E022414962
:101D60000B681A4080235B012B431A60802380227A
:101D70009B012B4312011A60802380225B004B6081
:101D8000294BD2022362394B5968914200D25A60E2
:101D90008022374B616A1201344D1A60002905D048
:101DA000606900F083F901300138FDD1E0222F494C
:101DB0000B681A4080235B012B431A60802380222A
:101DC0009B012B4312011A608023DB024B60174BEF
:101DD0006362284B5A68FF2A02D8802252005A6058
:101DE0008022254BA1691201224D1A60002905D0DD
:101DF000606900F05BF901300138FDD1E0221D4936
:101E00000B681A4080235B012B431A6080238022D9
:101E10009B012B4312011A6080235B004B600E4B29
:101E2000A361E3E6640A0020006CDC021BB700003B
:101E3000008000403CB0004030B00040002F6859A6
:101E400000800240008C864700C002403080004085
:101E5000001BB7003C80004040597307548000408D
:101E600054B000406080004060B000406C80004092
:101E70006CB000404880004048B00040014B8000FA
:101E8000C0587047640A0020F8B504000C20170001
:101E90001D000E0000F00AF94101091A8B01591AC0
:101EA000C90009188901380000F000F9069A2B04CE
:101EB000120313432268002A21DB194AA218514257
:101EC0004A41802149018C4652420A4015496244E8
:101ED0000A6015490A60154917008D68AF43FBD1A8
:101EE000C021221D8901114321222660A0600A60C1
:101EF0002268002AFCDAE36008230B60F8BD3F2269
:101F000021680A40B242D8D1A2681205120D82425D
:101F1000D3D1EE21E268C9020A409A42CDD1EDE761
:101F20000040FDBF00E0004000F0004000C0004065
:101F30008023024A9B000343D36270470080054020
:101F400010B5140080221B4BD2051A6000281AD04D
:101F50000123194A1843194BDA61194A42401A629F
:101F6000596298628022134BD2051A601549164AAD
:101F70001160E022D2041A60002C07D18022134B9A
:101F800012061A6010BD0D4BD861EBE78023620189
:101F9000121B9200121912015B049A4200D30C4AE0
:101FA0000C4B1A60054B5A608022084BD2051A6010
:101FB000E8E7C04600B00540D3C007B00080054048
:101FC0002D3FF84FFCFF01000820014000A0054014
:101FD000FFFFFF00000F0020AA23064A1B01136029
:101FE0002F230549D360054B19605368002BFCDA99
:101FF0007047C0460040024000B0FA000060024056
:1020000010B5002800D110BD00F034FAFBE7C0463F
:1020100010B5094A0300146884B0002C08D00122CE
:1020200000910648524203A9A047012004B010BD08
:1020300000F072FA0020F9E7FC0E002001200010E9
:1020400001480421014B18470004002071200010B2
:10205000142310B50100188804331B88984710BD5D
:10206000162310B50100188802331B88984710BD4D
:10207000F0B5C64600B5002916D01423040001258A
:1020800098461827890046184346216818883B88D7
:10209000984701C4431E984140420540A642F3D1EF
:1020A000280004BC9046F0BD0125F9E7114A936F62
:1020B0009B0813D210665166002905D0FFE7FFE7A1
:1020C000FFE7516F106F704704B5002801D0002062
:1020D000C04303F001F8002104BDC046F0B5146E02
:1020E000556E576F166FFFF7E5FF14665566576715
:1020F0001667F0BD000000D0132370B51D78012DC8
:1021000015D010DD2748FFF7ABFF274C01008022D8
:10211000200000F0D7F8022D06D02448FFF798FFE2
:10212000234B186070BD204C224AA264F5E72E00B4
:102130001D4C204AA3085B421E401D422FD0330095
:1021400022602020B1006118801B0A604A608A600A
:10215000CA600A614A618A61CA610A624A628A6225
:10216000CA620A634A638A63CA630A644A648A6405
:10217000CA640A654A658A65CA650A664A668A66E5
:10218000CA660A674A674008102803D18A67CA6787
:10219000A264C2E71E339B00E250A264BDE70023A5
:1021A000CFE7C04653440000680F00204C330000C6
:1021B000200F0020B921001007B5604601880A0AE7
:1021C0000230DF2AFAD1C9B2820804D302884088DB
:1021D0000004104300E00068014A5050039007BD1E
:1021E000680F002051434343C9188C46110C83B239
:1021F0004B4310B4040C614392B280B2504362432B
:102200001C041B0C001910BC59411304120CC018FB
:102210005141614470470000132310B512481C78E7
:10222000FFF71EFF0100012C0AD003DD80220F48BA
:1022300000F048F80E48FFF70BFF0E4B186010BD7A
:102240000A4C5422200000F03DF80B4B6365A36557
:10225000E36523666366A366E36623676367A36734
:10226000E3672362E361E5E753460000681000205E
:102270004C330000200F00207D22001007B560467F
:1022800001880A0A0230DF2AFAD1C9B2820804D3CF
:10229000028840880004104300E00068014A505062
:1022A000039007BD6810002001480421014B184726
:1022B0001004002071200010014B1B68184700001B
:1022C00010040020014B5B68184700001004002038
:1022D000030010B508001B681100984710BDC046E8
:1022E000F8B54746CE4680B5437C07000D00160082
:1022F000002B37D000240020002A1EDD4B1E9846FC
:102300001B4B9946002C2BD043461B5D0D3B5A427C
:102310005341DBB22A5D0A2A13D00134A642F1DC14
:10232000864203DD311A3B6828189847AD19013DF4
:102330002B780D3B5A4253413B740CBC9046994656
:10234000F8BD002BE9D1A04203DA211A3B68281816
:102350009847484602213B68013498472000DDE752
:102360003B7CD7E70368110028009847E5E7C046A3
:1023700044520010F0B557464E464546DE461C0016
:10238000D023E0B51B061F68354B83B006000D0057
:10239000180001A991469A4602F0A6FE8046002840
:1023A00008D1019B7FB29F4204D0504602F0ACFEA0
:1023B000012398466B1C03D1300002F047FE050054
:1023C000002C2AD1274F284B1C68002C18D04B46D4
:1023D000002B24D1254B994602E0E468002C0FD055
:1023E0002368002BF9D04B461B68002B01D0A34279
:1023F000F3D120002A003100B847E468002CEFD167
:102400004346002B28D1681E8541E8B203B03CBC8E
:1024100090469946A246AB46F0BD154FD3E7134B05
:1024200099460A239B4602E0E468002CE8D0236822
:10243000002BF9D04B461B68002B01D0A342F3D1EF
:102440002A0031002000B8475A466B4620001A7116
:1024500001A90122B847E7E7504602F035FED2E76E
:1024600074040020E1220010F40A0020F80A002081
:10247000D1220010F0B54746CE4680B583B06B46FA
:10248000DF1CD02338701B061C68204B060001A9F6
:102490001800984602F028FE051E22D01C4B1C682E
:1024A000002C2AD01B4B994602E0E468002C10D087
:1024B0002368002BF9D04B461B68002B01D0A342A8
:1024C000F3D1200001223900FFF70AFFE468002C55
:1024D000EED1002D11D1300003B00CBC90469946CE
:1024E000F0BD019B64B29C420BD0404602F00CFE52
:1024F000074B01251C68002CD4D1404602F0E4FDB6
:10250000E9E7034B1C68002CCCD1E4E774040020FD
:10251000F40A0020F80A002070B5040002F096FDCD
:1025200000230100050001222000FFF723FF084BD4
:102530001C68002C06D06368002B05D09847E4681F
:10254000002CF8D1280070BDE468002CF3D1F9E725
:10255000F40A00200A4A1368002B05D10CE01A0087
:10256000DB680C32002B07D09842F8D1002902D149
:10257000C3681360C16070470029FCD01060FAE79F
:10258000F40A002010B500F045F800F0A7F910BDDE
:10259000F0B50D1E15DD0E4B0D271A680D4B4519B4
:1025A000D31859424B410C495B005E5E20210478F0
:1025B000A64207D093691942FCD101301460A842A9
:1025C000F5D1F0BD93691942FCD11760F2E7C0461E
:1025D000400F00200080FCBF640F002030B50500D4
:1025E000002912DD00201024094B013D1A6893696F
:1025F0001C4208D1013093691C42FCD113682B5452
:102600008142F4D130BD0028FCD103204042F9E7DB
:10261000400F0020E12110B50B4B0C481B780C4BF0
:1026200049021B780B4B1860FFF7C0F9022100200C
:10263000FDF7ACFE02210120FDF7A8FE01210648AE
:10264000FFF788FF10BDC0469454001000400340BF
:1026500098540010400F0020200400207047C0460E
:102660000022014B1A7070475F0F00204B79002049
:10267000FF2B0BD18B79002B08D1CB79012B05D106
:10268000082A03D98A78024B09301A707047C0466D
:102690005F0F00200120704770B5002915D1154942
:1026A0005379107909781B0203430020994200D026
:1026B00070BD5378012B0AD0022BF9D1002064227F
:1026C0000021FFF73DFC0120F2E70120F0E79478BC
:1026D000D278050012021443D20502D5620A934053
:1026E0001D000548FFF7B4FC7F21030021402800AE
:1026F0009847C0465F0F0020554200000123037039
:1027000000487047885200104A780B7812021A432A
:102710008B7810B51B041A43CB781B061343962203
:10272000D200934200D010BD0348FFF791FC002176
:10273000030008009847C0465542000070B5184C89
:1027400082B006000D00200001A902F0CDFC002897
:1027500008D1D0231B061B68019A9A421CD0200086
:1027600002F0D2FC002001F01FFE002807D1032553
:102770006D42200002F0A8FC280002B070BD0020CD
:1027800001F02AFE0028F2D02A003100002001F0DA
:102790002FFE051EEBD0ECE703256D42ECE7C046AB
:1027A000280F0020F0B54F46D6464646C0B5354BFB
:1027B00082B007000D00180001A9994602F094FCB0
:1027C000002808D1D0231B061B68019A9A4252D0D8
:1027D000484602F099FC002001F0E6FD002842D0B6
:1027E0000024002D44DD284B9A46984611E0391903
:1027F000002001F071FE060000F068FE002001F0EC
:102800002FFEFEF7C5FD434618605960A419AC427F
:102810002EDA002001F07AFE2E1B0200B04200DD0D
:102820003200002AE3D100F051FE002001F018FE32
:10283000002001F0B9FD00281AD0002001F066FE4A
:102840000028E4D1FEF7A4FD53460E001A685B6829
:10285000002184460D4812184B419E4208D8D6D11B
:102860009445D4D904E000200021074B186059603A
:10287000484602F029FC02B01CBC90469946A2468C
:10288000F0BDC046280F00209805002020A10700B9
:1028900010B5044B1878FDF765FEFA200021800082
:1028A00010BDC046600F002010B5024B1878FDF730
:1028B00059FE10BD600F002010B5074C002120000C
:1028C00002F012FC002800D110BD00F0FFFD200036
:1028D00002F0FAFBF8E7C046280F0020F0B5244BC1
:1028E00085B01B7802F022F82248FFF735F8012066
:1028F000FEF7B0F8FF23204C204920701840FDF768
:1029000057FE20780121FDF71BFE0520FDF732FE62
:10291000041E0CD0002205201949FDF773FE012189
:102920001848FFF717FE0124200005B0F0BDFEF7A0
:1029300011FB0500FEF72CFDFA2206000F00002314
:10294000920092197B4199420ED80BD0012102913D
:10295000002101910C4928000091FEF7FFFA0028A0
:10296000E2D0DCE79042F1D901225242D317EDE7E1
:102970009C540010280F0020600F0020B928001080
:10298000A928001034040020912800100048704746
:102990004053001000487047EC52001070B504001E
:1029A00016480378002B20D0002C06D1C1241448EF
:1029B000144BA4004380048070BD052C1CD8124B1E
:1029C0000F48A400E558811C002304E001330A806D
:1029D0000231132B0DD0EA5CDCB2002AF6D1C02301
:1029E000013464009B001C43E5E7112102F030FA3A
:1029F000DAE7CA24A400DEE70020DDE7440F002068
:102A0000CC0A00200904000054530010F0B59823AC
:102A100057464546DE464E466C4AE0B5D7588025B7
:102A20003C006D02883B9A4683B02C402F420FD069
:102A300001222321664B00205A54DA70654901F0C7
:102A400075FA8022644B92021A65644B2C009A46F8
:102A5000FB0617D480235B011F4245D18023DB0195
:102A60001F4200D088E080231B021F4200D091E06B
:102A7000BC4200D0A5E003B03CBC90469946A246BB
:102A8000AB46F0BD514B9B6D9846002B27D0524B67
:102A900000259B460123994643460126B8461F0060
:102AA00004E001357600EDB2202D17D03742F8D082
:102AB0005B469E654B466C08AB436400E418444B90
:102AC00064019C466444200000F08CFB00286CD11B
:102AD0000135B743EDB27600002FE5D1474680239C
:102AE0005B0154461F42B9D01C430023374A0021E2
:102AF0001360384A3A489360D3603A4A9360D3608F
:102B0000394A9360D360394A9360D360384A9360FE
:102B1000D360384A9360D360374A9360D360374AB2
:102B20009360D360364A9360D360364A9360D36033
:102B3000354A9360D360354A9360D360344A9360DA
:102B4000D360344A9360D360334A9360D360F022F9
:102B50009200FFF7B1FB314B314A00211A6000208F
:102B6000012201F0B9F980221B4B12031A65802360
:102B7000DB011F4200D176E70122042100201C4323
:102B800001F01AF91022144B1A6580231B021F4210
:102B900000D16DE70122052100201C4301F00CF952
:102BA00080220D4B12011A6562E74B46A28AA1787A
:102BB00000200093002301F0E1F9200000F050FA1A
:102BC00086E7210017487940FEF7DCFF000011502E
:102BD000FC0A0020000010500030115010000100CD
:102BE0003C0B00200800105010001050180010502E
:102BF00020001050280010503000105038001050A5
:102C00004000105048001050500010505800105014
:102C1000600010506800105070001050040F002029
:102C2000800110506C53001010B501210520FDF7F4
:102C300087FC10BD10B500220021024800F036FAD2
:102C400010BDC0461C0B00208022024B5202DA64E9
:102C50007047C04600201150F0B5C64600B50600CA
:102C600000F0D8F90C23364D0520AB673549FDF748
:102C70009FFC40239846344C402200212000FFF75F
:102C80001BFB41460023012700222120A1832F495D
:102C900067706380A277A1600B6022545F3060840C
:102CA0004046A0870238225429492A4A6360E160DD
:102CB000A2621360284A6362E1629360D360274A8C
:102CC00020009360D360264A00219360D360254A98
:102CD00040309360D360244A9360D360234A93606A
:102CE000D360234A9360D360224A9360D360224A20
:102CF0009360D360214A9360D360214A9360D3608C
:102D0000204A9360D360204A9360D3601F4A936047
:102D1000D3601F4A9360D360F0229200FFF7CCFA91
:102D20001C4B1D4A30001A6080239B052F64EB6406
:102D300090231A4AEA50FFF787FF04BC9046F0BD83
:102D4000000011500D2A0010FC0A002084001050D1
:102D5000000110508000105000001050080010506A
:102D60001000105018001050200010502800105073
:102D700030001050380010504000105048001050E3
:102D80005000105058001050600010506800105053
:102D900070001050040F00208001105010D001006E
:102DA0000B785B0602D14B78052B00D070478A78F0
:102DB000014B1A60FAE7C04600001150F0B5CE464C
:102DC0004746072380B548798E780A790340C8784A
:102DD0007F21800731401B02F40913434F00820F0B
:102DE000944691462A4D3A195201AA189670012626
:102DF00066405670604600269383D6709077CA006E
:102E0000012C29D023488446880162448446AC447E
:102E1000604682601660002929D01F4AC90090468A
:102E2000414441603F223F3393434A46022A00D146
:102E30005B001A493F190A687F01D3180B60184BD1
:102E4000ED195340EA604A469006184380231B065A
:102E500018436B68186010E0124884468801624489
:102E60008446AC4460468262166000290AD1002381
:102E700064012D196B600C4BEB6001200CBC90467B
:102E80009946F0BD064AC900904641444162C9E7EF
:102E9000FC0A00208400105004001050040F002091
:102EA00000001050800010500001105000231C4AF8
:102EB00010B59360D3601B4A00219360D3601A4A17
:102EC0001A489360D3601A4A9360D360194A93609A
:102ED000D360194A9360D360184A9360D360184A4C
:102EE0009360D360174A9360D360174A9360D360AE
:102EF000164A9360D360164A9360D360154A936074
:102F0000D360154A9360D360144A9360D360F02273
:102F10009200FFF7D1F9124B124A1A6010BDC04659
:102F20000000105008001050100010503C0B002002
:102F30001800105020001050280010503000105081
:102F400038001050400010504800105050001050F1
:102F50005800105060001050680010507000105061
:102F6000040F00208001105010B57F200C0020407D
:102F70004000E409110000191A00034B4001C01879
:102F800000F094F8012010BDFC0A00207F231800F7
:102F900010B508400B420BD0C909802240004018F0
:102FA0000649400140181201002100F05FF810BDF1
:102FB0000223034AC9095B1A9366EEE7FC0A002064
:102FC000002011507F23180010B508400B4200D19B
:102FD00010BD00234000C9094118044849014018A8
:102FE00000220349C37000F041F8F1E7FC0A002019
:102FF000FFF7FFFF7F2110B58078044AC3099B00CB
:1030000001409A580248FEF7BDFDC0464804002022
:103010008053001080220D4B520410B51A600C4BE7
:103020000C491A6010008B689843FBD10A4C9C2213
:1030300000212000FFF740F98022002152010748BB
:10304000FFF73AF90923636710BDC04600E000406E
:1030500000F0004000C0004000001150000010507F
:1030600000230374438283828361704710B58368B1
:10307000002901D01C682140002A11D08024E400DE
:10308000114322420CD01A6822420BD1064A0A4050
:103090001A60FFE7FFE7FFE7FFE7FFE7FFE7836867
:1030A000196010BDFFF7A6FFFFFBFFFFF0B5C64696
:1030B000002300B5838201330374436804001E6853
:1030C000838B81611F1C934200D9171C8025BFB2DE
:1030D000D21BE37892B2ED0062823D43002B02D016
:1030E0009025AD013D4301204340E3706378002B00
:1030F00051D0002A1DD1A023DB011D43354B1B6C91
:10310000354B33408026B6051E436368A2681E60B7
:1031100013685B055AD4314B2B401360FFE7FFE780
:10312000FFE7FFE7FFE7FFE7A3681D6004BC9046E9
:10313000F0BD80235B011D43264B1B6C9B0703D412
:10314000A378DB09012BDBD1A38B191C934200D997
:10315000111C80278BB2FF00D21A98461F43E378D8
:1031600092B26282002B03D090274146BF010F43E9
:1031700001214B40E3706378002B19D0002A02D163
:103180008023DB011F43164B3F043340A026F60586
:103190003D431E43B9E73A00E068FFF793F8A3699F
:1031A000628A9C46802367441B02A7611D43A0E7F7
:1031B000E0684246A1694030FFF784F8A369628A5B
:1031C0004344A36180231B021F43D7E72000FFF77E
:1031D00011FFC04600001150FFFFFFAFFFFBFFFFD4
:1031E000FFFFFFDFF0B5C64600B5067C0400002EE9
:1031F00000D1D3E083681A681D684378AD05AD0D32
:10320000002B51D1838AEB189BB28382A18B8D4214
:1032100007D20023638263681B68300004BC9046B9
:10322000F0BD62681268520002D58D4200D175E08F
:10323000638A002BF1D062681F1C16688B4200D98C
:103240000F1C8025BFB2DB1BE2789BB2ED006382CE
:103250003D43002A02D09025AD013D4301214A4063
:10326000E2706278002A68D0002B2AD1A023DB010B
:103270001D434F4B1B6C4F4B33408026B6051E43FE
:103280006368A2681E6013685B0500D58DE04A4B39
:103290002B401360FFE7FFE7FFE7FFE7FFE7FFE7EC
:1032A000A36800261D60B8E72A00C1688069FFF79F
:1032B00009F8A38AA269EB189BB25219A382A261F2
:1032C000A4E7802252011543394A126C920703D4B5
:1032D000A278D209012ACED1A28B111C9A423FD8E2
:1032E00080278AB2FF009B1A90461743E2789BB270
:1032F0006382002A2FD101214A40E2706278002ABD
:103300003ED0002B02D18023DB011F432B4B3F0417
:103310003340A026F6053D431E43B1E7A268156879
:103320006278AD01AD0D002A1CD1EB18A3828D424D
:1033300000D37DE7002363826FE73A00A169E0686C
:10334000FEF7C0FFA3699C46802367441B021D4310
:10335000A761638A88E790274146BF010F43CAE708
:10336000191CBDE7E1682A004031A069FEF7AAFFF9
:10337000A38AA18BEB18A382A3695B19A361D6E78B
:10338000E0684246A1694030FEF79CFFA3694344D0
:10339000A36180231B021F43638AB2E77F238178E6
:1033A000074A08481940FEF7EDFB2000FFF722FE10
:1033B00000001150FFFFFFAFFFFBFFFFFFFFFFDF2C
:1033C00048040020A0530010024B5878431E984137
:1033D000C0B27047F4080020024B18784007C00FB5
:1033E0007047C046F4080020014B18787047C0466B
:1033F0005B0F0020F8B54746CE4680B5294F050043
:103400003B78002B04D001200CBC90469946F8BDB7
:10341000532200212448FEF74FFF244C2000FEF7E2
:103420009BFA234B1C60234C20001C30FEF7B0FAA3
:10343000200001F0C1FC204B204E1C60204B984620
:10344000002B04D03000FFF759F91E4B186042469C
:1034500000243378002A1DD01B4A9046194A914611
:103460009C4210D31BD14346984701343378E4B2D1
:10347000A342F5D22800FFF7EFFB2800FFF7D4FBAB
:1034800001233B70BFE74A46630012681B19DB004B
:103490009B58E9E701F046F83378002BEAD0002387
:1034A0001B68FFDE5B0F0020F4080020AC08002042
:1034B00048090020500400204C0900205A0F002029
:1034C000FD260010BC05002025450010F0B5DE46A5
:1034D00057464E464546E0B58BB001F02DFA002820
:1034E00000D144E1C24BC34E9B4607AC3568EA6944
:1034F000EFF3108372B611680029FCD0BFF35F8F21
:103500002B622100280001F0CFFAEA692B6ABFF391
:103510005F8F0021116083F31088002800D126E11D
:103520006378082BE2D85A469B00D3589F466368BD
:10353000002BDBD0A0689847D8E77F222179AE4BDB
:103540000A405500C8095B191B18180001273030C4
:10355000C578BD43C570C5780337BD43C570002A23
:1035600000D10BE1A54ADB7C002A06D0A44A1278E0
:10357000934200D291E19B1ADBB2002B00D0F6E01F
:10358000A04D62792078A368A847AFE701229A4F3F
:1035900001213B78042013433B703323FA5C8A43B8
:1035A000FA54FA5C8243FA540133FA5C8A43FA54BF
:1035B000FA5C8243FA54237800209A4600F064FEB5
:1035C000602223791A40602A0DD0402A00D1F2E00F
:1035D000DB06DB0E012B00D16AE1022B00D121E1D9
:1035E000002B00D1F6E020780021FFF7CFFC8021EE
:1035F0002078FFF7CBFC79E77F4B1B78DB0700D403
:1036000074E7814B002B00D170E700E000BF6DE74D
:10361000794B1A78D20700D468E77C4A002A00D197
:1036200064E718780007C00F00E000BF5EE7744D44
:10363000724A00272B78002A00D1B6E0744A9046DF
:103640009F4208D39F4200D0B2E00137FFB29F42B1
:1036500000D94BE7F6D2414609687A008C46D21968
:10366000D20062445269002AEFD020789047013797
:103670002B78FFB29F42E3D938E72378604D5F4A49
:10368000984600272B78002A00D186E0614A9146AF
:103690005F4A92462A0045469046BB425ED800D01B
:1036A00078E04B4628009847434601371B78FFB225
:1036B000BB42F2D2504D532200212800FEF7FCFD00
:1036C0001022FF21E81CFEF7F7FD28002022FF2131
:1036D0001330FEF7F1FD00F0CDFD4F4B002B00D174
:1036E00004E700E000BF01E72378454D434A9846D0
:1036F00000272B78002A47D0464A9146444A9246F2
:103700002A00454690469F421FD343D14B4628008E
:103710009847434601371B78FFB2BB42F3D2364D80
:10372000532200212800FEF7C7FD1022FF21E81CCC
:10373000FEF7C2FD28002022FF211330FEF7BCFD5A
:1037400000F098FD2379AB70D0E6524612687B00FA
:103750009446DB19DB0063445B68D8E75246126885
:103760007B009446DB19DB0063445B689AE70BB08F
:103770003CBC90469946A246AB46F0BD62792078A3
:10378000A36800F095FDB1E6404600F009FF2B78F4
:10379000002BC4D000235B68FFDE404600F000FF32
:1037A0002B78002B00D185E7F4E7002B00D19DE6B4
:1037B00000235B69FFDE1948002800D113E700F001
:1037C00063FD0021504608AA00E000BF002800D099
:1037D0008CE608E7202A00D19FE0002A00D002E70B
:1037E0006379092B00D9FEE60D4A9B00D3589F460A
:1037F000CC5300104C090020F4080020FD260010D6
:103800005A0F002095470010000000000000000043
:10381000BC050020A14500100000000000000000D1
:10382000F05300107023217A0B4200D0DBE60F33F7
:103830000B405B00F818CD090093CF4B4019C07CBA
:10384000002B06D0CD4B1B78984200D288E0C01ADE
:10385000C0B200287ED1002A00D03AE1C84B0193C3
:10386000637998460223424699469A43012A00D139
:1038700033E14346002B00D0B5E6009B06AAFB18B7
:103880005D193035EB7802329B07DB0F1380504611
:10389000022308A900F092FC28E65A00D318B94A7E
:1038A000DB001268D318002B00D160E71D6968E6C1
:1038B000237A0F2B00D996E6AF4AFB18DB78002A53
:1038C00005D0AE4A1278934264D39B1ADBB2002B28
:1038D00000D088E6AC48AA4D00F0D6FC0021504646
:1038E000EB6808AA9847002800D0FFE56022150081
:1038F00023791D401A4200D075E663790A3B012BFB
:1039000000D970E600F0C0FC63790A2B00D145E1D4
:10391000504608A900F03AFCE8E5237A0F2B00D9BD
:1039200061E6954AFB18DB78002A06D0934A1278A4
:10393000934200D2F5E09B1ADBB2002B00D052E696
:1039400091488F4D00F0A0FC00215046EB6808AA7A
:1039500098473BE7002A00D045E6002301937FE724
:1039600043009C46874B60441B68C0009C46030094
:1039700063440193002A00D172E7002B00D132E6A4
:10398000D86800F081FC019B00215046DB6808AA42
:1039900098471BE77B4A5D00EB181568DB00ED18C4
:1039A000002D00D11FE6E86896E7E388012B00D0E0
:1039B00019E608223B785046934308A93B7000F073
:1039C000E5FB93E50220397806AB9A1C8B06890843
:1039D000DB0F01400B4359E7A37901931A007B7871
:1039E0009A4207D07B78002B00D047E1019B002B47
:1039F00000D0DCE0019B504608A97B7000F0C6FBBC
:103A000074E57B7806AA023213705046012308A998
:103A100000F0D4FB6AE5E088030AC0B20F2B00D99E
:103A2000E1E55A499A008A58974608A800F032FC06
:103A30005046A179FFF7FEF802223B7813433B7012
:103A400054E5E388012B00D0CDE508223B785046B1
:103A5000134308A93B7000F099FB47E54C4B002B42
:103A600000D1C0E500E000BF0200D37891781B02CE
:103A70000B43504608A900F0A1FBA7E6454B002BDD
:103A800000D1B0E500E000BF021E00D1ABE550461A
:103A9000137808A900F092FB98E62189FEF77EFFD3
:103AA000021EF4D19FE5022B00D172E13A4B002BAC
:103AB00000D198E500E000BF0200002AD5D192E5D0
:103AC000FEF764FF1223020008A9504600F076FBBF
:103AD0007CE62B4B2C48019353E7E288002A09D15E
:103AE0004346012B28D0009BFB185D193035EB783D
:103AF0009B0734D5019D002D00D1F7E4EB68180039
:103B0000009300F0C1FBEB68002108AA50469847DB
:103B1000002000F0B9FB3423FB5CDB0700D5E5E4B3
:103B2000F6E6184A5D00EB181568DB00ED18002D6D
:103B300000D158E5E86805E7009BFB185D193035B2
:103B4000EB789B07D6D55046FFF73CFA4A46EB7810
:103B500093434246EB70EB789343EB70CAE75046D1
:103B6000FFF714FA0222EB7813430122EB70EB7893
:103B70001343EB70BEE7C046FD2600105A0F00202D
:103B800058540010BC050020B14600101854001015
:103B900000000000000000000000000006AB9A1CBE
:103BA0005046012308A9157000F008FB9EE4581E3A
:103BB000C0B2FEF7EFFE002800D114E5437804936D
:103BC000022B00D00FE50121C3799A115B110A4045
:103BD0000B4052011B0113433A782F318A431343A0
:103BE0003B7009239946C37882781B021343C3189C
:103BF00081440393039B4B4500D8C3E04B4601220D
:103C00005B7800920B2B07D14B46DB7800934B4639
:103C10001B7899444B465B78042B00D0E3E44A467A
:103C2000039B00259B1A9BB202935C4A5C4B1B785A
:103C3000002A16D162E0AB4270D15A4A5A4B9046E4
:103C400049465046029A98478446082802D9029A63
:103C5000824269D2524B01351B78EDB2AB4200D2A1
:103C6000C1E4AB42E7D9514A6B0012685B19904638
:103C7000DB009844434605929B68E1E75046FFF716
:103C800015F9BB78464D454A009300212B78002A50
:103C90002DD0464A90462A000D0091469D421DD3E4
:103CA00000D077E5424B504698474B4601351B788C
:103CB000EDB2AB42F2D2532200213800FEF7FCFAFB
:103CC0001022FF21F81CFEF7F7FA38002022FF210E
:103CD0001330FEF7F1FA009BBB7087E6424612688C
:103CE0006B0094465B19DB0063445B68DBE750467E
:103CF00000F056FC2B78002BDDD04BE5029D4946A9
:103D00002A00504600F062FC8446082801D9A842E7
:103D100007D9234B1B78002B00D164E400239B6858
:103D2000FFDE204B1D4D9846009B012B22D0009BAF
:103D3000002B10D04B469978002305E0D570013355
:103D4000009ADBB2934206D2CA18D2B2BA18D0781F
:103D5000FF28F3D047E43800E0462B00494662468E
:103D6000133000F029FE0E4BC1441B78AB4200D348
:103D700040E738E442460C4B92689A42DAD1049B01
:103D80000093D7E70B4B002B00D133E600E000BFD8
:103D900030E6FEF7FFFD02008FE6C046FD2600106C
:103DA0005A0F002058540010CD450010BC050020CB
:103DB000A14500100000000030B587B005000C00E0
:103DC0000C2200216846FEF777FA6B461D705C7086
:103DD000042C4FD009D8022C34D0032C28D13C4BD2
:103DE0001A78520758D407B030BD052C20D1384B73
:103DF0001A78D207F7D504211A788A431A70354BFE
:103E00001C68E269EFF3108172B61368002BFCD0D6
:103E1000BFF35F8F21626946200000F013FFE26963
:103E2000236ABFF35F8F0021116083F31088DAE704
:103E3000284B1C68E269EFF3108172B61368002BFF
:103E4000E6D1FBE70121224B1A788A431A701A78CF
:103E50000331A2431A7000225A701A788A431A70EA
:103E60001C4B1C68E269EFF3108172B61368002BDB
:103E7000CED1FBE7164B1A78D207B4D504211A78B5
:103E80000A431A70134B1C68E269EFF3108172B693
:103E90001368002BBCD1FBE704211A7803A88A43DE
:103EA0001A7000210C22FEF707FA6B466A461D7352
:103EB00005235373074B1C68E269EFF3108172B658
:103EC0001368002BFCD0BFF35F8F216203A9A3E727
:103ED000F40800204C09002070B584B001AC060045
:103EE0000D000C2200212000FEF7E6F9012363708B
:103EF0000D4B25711D682670EA69EFF3108372B6C9
:103F000011680029FCD0BFF35F8F2B6221002800CD
:103F100000F098FEEA692B6ABFF35F8F0021116001
:103F200083F3108804B070BD4C090020002330B525
:103F300085B001AD6B8028700633082202A86B7033
:103F4000FEF7C0F90C4B1C68E269EFF3108372B600
:103F500011680029FCD0BFF35F8F23622900200085
:103F600000F070FEE269236ABFF35F8F00211160E9
:103F700083F3108805B030BD4C090020F0B5C6466B
:103F8000804600B584B001AC0F0016000021082265
:103F900020001D00FEF790F943462370072363704D
:103FA0000F4B65711D682771A660EA69EFF31083F6
:103FB00072B611680029FCD0BFF35F8F2B6221001D
:103FC000280000F03FFEEA692B6ABFF35F8F0021F3
:103FD000116083F3108804B004BC9046F0BDC04665
:103FE0004C090020F0B54646D6464F468046C0B53F
:103FF0000C0015001E00002A2ED070239946184B85
:1040000000279A466378052B0FD1E1788907890F3D
:10401000B1420AD14A46A3781A4206D1534620003B
:10402000997800F08DFC002805D100201CBC90463A
:104030009946A246F0BD21004046FEF7BFFE00288B
:10404000F3D0A378DA09012A08D0089A13702378EC
:104050000137E418AF42D5DB0120E7E7099AF5E71D
:10406000F4080020702270B58B7805000C001A420D
:1040700001D0002070BD064B2000997800F060FC54
:104080000028F6D021002800FEF798FEF2E7C0468F
:10409000F408002070B57F240C406300144CC9095B
:1040A000E41864183034E378DB07DD0F002B18D1F7
:1040B000E3785B0701D5280070BD01210D4E494210
:1040C000306801F019F8E378DB07DD0F002B0AD127
:1040D000E3785B0708D40422E37801251343E370F7
:1040E00002E00025E7E70025306800F0EDFFE2E799
:1040F000F40800204809002070B50C0001210F4D84
:104100004942286800F0F8FF7F2121404B000C490C
:10411000E409C91809193031CB780024DB0708D429
:10412000CB785B07DC0F002B03DA0422CB789343B8
:10413000CB70286800F0C8FF200070BD480900203F
:10414000F408002070B57F240C4065000E4C06007A
:104150006419C80924183034E5780020ED0700D52B
:1041600070BD0125E0782843E0703000FEF7FCFECA
:104170000028F5D10122E3789343E370E37803321A
:104180009343E370ECE7C046F408002070B50A4E94
:104190000500082230000C00FEF794F8002161565B
:1041A0000023C943C90F2800F3600022C901B3608E
:1041B000FFF7C8FF70BDC04698080020F8B5CE468E
:1041C00047469046294E80B58146082230000D00B2
:1041D0001F00FEF777F84346B3600023F381EC79C4
:1041E000AB7924021C43231CBC4200D93B1C9FB268
:1041F000B381002C12D0002F1ED04346002B32D0AA
:104200003B1C402F1ED89FB233787F2B1FD8002134
:10421000174A3B004846FFF795FF09E00021695621
:104220000023C943C90F00224846C901FFF78AFF8E
:104230000CBC90469946F8BD33787F2B10D980216D
:104240000022E6E740239FB233787F2BDFD9084C6A
:104250003A0041462000FEF735F880212200D8E7D9
:1042600000210022D5E70020E2E7C04698080020A0
:10427000B408002010B5142200210248FEF71CF8F3
:1042800010BDC04698080020014B18617047C04619
:104290009808002010B5054C010008222000FEF708
:1042A00011F80023A360E36010BDC0469808002009
:1042B000F8B53A4C1D0023780600DA09C9098A428C
:1042C00013D00020002D00D0F8BD354B002B03D0BB
:1042D00021003000FEF764FD2369002B43D022004B
:1042E0000221300098470120EEE77F2B06D8A06816
:1042F000002836D02A002B49FDF7E4FFA368E289A5
:1043000059195219E38892B2E281A160934214D004
:104310003F2D12D9A589A81A071C80B240282ED893
:104320002378BFB27F2B2CD80021AA4234D01D4A5B
:104330003B003000FFF706FFC6E72369002B05D0DE
:10434000220001213000984700280ED0002161563C
:104350000023C943C90F00223000C901FFF7F2FE54
:10436000B2E70020B0E70120AEE700213000FEF701
:104370000DFE30008021FEF709FE0120A4E7402752
:10438000CEE7AA4207D0074C3A002000FDF79AFF7B
:1043900080212200CCE780210022C9E79808002074
:1043A000A12D0010B408002010B50400FFF70CF890
:1043B000002801D1002010BDFFF70EF80028F9D128
:1043C000B6208000444303480019037901201840B7
:1043D000F1E7C046C0050020B6239B00584310B546
:1043E000024B1030C01800F039FB10BDC005002092
:1043F000F0B5B625AD0045432C00C646174F103426
:10440000E41900B5200092B200F09CFB06002000E9
:1044100000F03CFB3F2803D8300004BC9046F0BDC0
:104420007B190020D9789846FFF734FE0028F3D096
:10443000200000F02BFB3F280AD996239B00EA18A6
:104440004346D219D97800204023FFF77BFEE3E7EB
:1044500043460020D978FFF74FFEDDE7C005002076
:10446000F8B50400FEF7B0FF002801D10020F8BD28
:10447000FEF7B2FF0028F9D1B620800044432500A2
:10448000144E2C35AD19280000F0E8FA0028EDD0C4
:1044900037190020B978FFF7FDFD0028E6D0A623E4
:1044A0009B009C466444A41921002800402200F08F
:1044B00049FBB978051E08D0030022000020FFF751
:1044C00041FE0028D2D02800D1E70020FFF714FEDB
:1044D000CCE7C046C005002070B5B624A400444314
:1044E000094B2C34E418050092B2200000F0E8FBE0
:1044F0000600200000F0B2FA3F2801D8300070BD5D
:104500002800FFF7ADFFF9E7C0050020B6239B00A8
:10451000584310B5024B2C30C01800F0B7FA10BD4C
:10452000C0050020B622F0B51B4C83B0002120004E
:104530009200FDF7C1FEFF236371184B8026002512
:10454000E380012708232100200076002373320036
:104550002781658148310095073B103000F042FA11
:104560002100200049313200FF31012300972C3017
:1045700000F038FA92239B00E6183000FDF7ECF9C2
:1045800094239B00A662E61830006562FDF7E4F90B
:104590002664656403B0F0BDC005002000C2FFFFC3
:1045A00010B5094C052200212000FDF785FE2000F2
:1045B0002C34103000F000FC200000F0FDFB012145
:1045C000200000F01FFC10BDC0050020F0B54B79A5
:1045D000060083B0022B02D18B79022B03D0002579
:1045E000280003B0F0BD2F4FBB78002BF7D18B789C
:1045F00009253B700C780C196378242B0BD1082A01
:1046000002D80FE0AA420DD32378E418ED1863789E
:10461000ADB2242BF6D0052B20D0042B02D1637928
:104620000A2B2ED0204C200000F030FA3F28D7D99A
:104630002600103E0020F178FFF72CFD0028CFD097
:10464000200000F023FA3F2816D992239B00E2189D
:10465000F17840230020FFF775FDC1E7210030000D
:10466000FFF700FD0028BAD0A3787B702378ED18FF
:10467000E4186378ADB2D0E7F1780020FFF73CFD95
:10468000AEE70A4B277801930133009302220223FD
:104690003000E119FFF7A6FC0028A0D00E35ED1977
:1046A000ADB2BFE7C0050020D0050020C205002044
:1046B000F8B5602314001278050013400020202B69
:1046C00012D12F4E6379277932781B023B439A42ED
:1046D0000AD16378222B27D007D8202B17D0212B83
:1046E00002D100293ED00120F8BD232BFCD10029A6
:1046F00040D00229F7D1234B002BF4D0E178A378E6
:1047000009020020194300E000BF0120ECE7002966
:1047100028D00229E7D11C4B002BE4D00020B11D8A
:10472000FDF7F2FF0120DFE7002923D00229DAD1CB
:1047300001252F003000A378E478013924021C43BE
:104740002740347179402C3000F05CFB0F4B002B7C
:10475000C9D02A00640800203900224000E000BFD0
:104760000120C1E7072321002800094AFFF726FDA1
:104770000120B9E721002800FFF708FD0120B3E779
:10478000C005002000000000092700100000000004
:10479000C6050020F8B557464E464546DE46E0B50C
:1047A0005D4F8046FA780C001E008A4265D19AB2AD
:1047B00096239B00FD1810239946B94429004846CA
:1047C00000F07EFA554B002B19D07B79FF2B16D0C9
:1047D000002E14D0AA199246BB4603E00135554578
:1047E0000DD07B792A789A42F8D1484600F046F9F4
:1047F0000028F3D15B46597900E000BFEEE7484B53
:10480000002B05D0484600F039F9002800D176E0A9
:10481000484600F03BF93F2858D84A46103A93786A
:104820009C4207D0012420003CBC90469946A246F9
:10483000AB46F8BD3B4B002B02D0002000E000BF90
:10484000FEF7C2FD00281DD1374C200000F006F90C
:104850000028E7D1002EE5D0B306E3D12C3CA178A7
:104860004046FFF717FC2500041EDBD00023002282
:104870004046A978FFF766FCD5E7BB788B42D9D0D4
:104880000024D0E7FEF7A8FD274C0028DDD120004A
:1048900000F0E4F80028D8D025002C3D0020A978AD
:1048A000FFF7F8FB0028D0D09B239B00E7183900C6
:1048B0004022200000F046F9A978031E28D03A00D3
:1048C0000020FFF73FFC0028ACD1BEE74D46103D6D
:1048D0000020E978FFF7DEFB002801D1AB789FE7E5
:1048E000484600F0D3F83F280CD99222920040238A
:1048F0000020E9784A44FFF725FCAB7890E700E018
:1049000000BF85E70020E978FFF7F6FBAB7887E783
:104910000020FFF7F1FB98E7C00500200000000031
:104920000000000000000000EC05002010B5002091
:10493000FEF760FD10BDC04610B5FEF755FD10BD79
:10494000072210B544790379224012021A43C37832
:104950009B079B0F022B05D0032B15D00020012BAA
:1049600008D010BD02291CD00020402393424041B2
:10497000C0B2F6E702394B4259410D4B9C466144A7
:1049800091424041C0B2ECE702394B425941F02319
:10499000002049429B001940403191424041C0B241
:1049A000DFE7044B9C46624450425041C0B2D8E716
:1049B000FF03000000FEFFFFF0B5002A11D0002425
:1049C0007F274D78052D06D13D008E7835406D004E
:1049D000F6094519AB550D786419A4B24919A242DC
:1049E000EFD8F0BDF0B5C64600B5150006AA1E000A
:1049F0001378802204000F009846120295422AD8AC
:104A00004069002803D00121494200F075FBA069EC
:104A1000002803D00121494200F06EFB4346A580E7
:104A20006D00ADB223726B1EA381002360696D42DD
:104A3000E3812760E68065812382002801D000F0B1
:104A400043FBA0690124002801D000F03DFB2000B9
:104A500004BC9046F0BD0024F9E7C046C189028A33
:104A60008B1A9BB2914202D242899B1A9BB28288D6
:104A7000101C9A4200D9181C80B27047C389008A62
:104A8000181A43425841C0B27047C04610B5C48995
:104A9000018A8388621A92B28C4202D24089121A29
:104AA00092B2981A80B210BD70B5040080690D00F2
:104AB000002803D00121494200F01EFBE089218A31
:104AC00086B2421A8BB292B2884202D26189521ADD
:104AD00092B2A088904207D286422CD26289821874
:104AE000B21A92B222820200002A02D11CE01B1AE2
:104AF0009BB29842FBD9E288216853432800C91829
:104B0000FDF7E0FB228A0125531C9BB29A420ED985
:104B1000002362899B189BB2A0692382002801D0E0
:104B200000F0D2FA280070BD0025238A9BB2A2892A
:104B30009A42F1D2EDE7321AA18992B29142D1D2D2
:104B4000CCE7C046F0B54F464646D64604008069DD
:104B500088469146C0B5002803D00121494200F0A3
:104B6000CBFAE289238A91B2D61A9DB2B6B29A42A2
:104B700002D26389F61AB6B2A788B74209D2B942FF
:104B800054D26389FB18CB1A9BB23E002382258A3C
:104B9000ADB2002E50D04B46B14545D89EB2AF4283
:104BA00003D8ED1BADB2AF42FBD9E388781B1900E7
:104BB0009946236869439C4680B26144864225D960
:104BC0004B46584383B21A0040469A46FDF77AFB9B
:104BD0004B464046F71BED195D432168AAB250448D
:104BE000FDF770FB228A93199BB29A4218D9628909
:104BF0009B189BB2A0692382002801D000F064FAC0
:104C000030001CBC90469946A246F0BD4A4640463C
:104C10007243FDF757FB228A93199BB29A42E6D85A
:104C2000A2899A42E6D2E2E7331CB7E7CB1BA289FE
:104C30009BB29A42A9D2A4E7238AA2899BB29A4244
:104C4000D8D2D4E7F8B5040040690E00002803D09C
:104C50000121494200F050FAE289218A95B2531AA3
:104C60009BB2914202D962899B1A9BB2A2889A4256
:104C700021D02B00954203D39B1A9BB29A42FBD9B9
:104C8000E28821685343C8183100FDF71BFB6B1CF9
:104C90009BB29D420BD962899B189BB26069012728
:104CA000E381002801D000F00FFA3800F8BDA28996
:104CB0009A42F3D2EFE7277A002FDAD1F5E7C04620
:104CC000F8B54546DE4657464E460400E0B58846F0
:104CD000151E5AD04069002803D00121494200F036
:104CE0000BFAE789237A228ABFB292B2002B3BD11A
:104CF000B91AA38889B2974202D26289891A89B205
:104D0000591A0A1C89B2A94253D895B2E288EE1A00
:104D10009246B2B291463E009F4203D3F61AB6B213
:104D20009E42FBD250462268704394469B1B9BB226
:104D3000524660449D422AD841466A43FDF7C2FA72
:104D4000EB199BB29F421CD8A2899A4219D3606981
:104D5000E381002801D000F0B7F928003CBC904660
:104D60009946A246AB46F8BDA3889D42CED3170014
:104D70000022E188ED1A4D438A46A84491461D0061
:104D8000C9E762899B189BB2E1E70025E5E7534339
:104D90009BB21A0041469B46FDF794FA32005346F7
:104DA00041464A445A43206892B25944FDF78AFA70
:104DB000C6E72A1C95B2A9E710B50400406900288F
:104DC00003D00121494200F097F9A069002803D0DF
:104DD0000121494200F090F90023E3812382A38856
:104DE00060695B009BB25A1E5B42A281638100280E
:104DF00001D000F069F9A069002801D000F064F941
:104E0000012010BD70B5040040690D00002803D0DA
:104E10000121494200F070F9A069002803D0012166
:104E2000494200F069F960692572002801D000F05C
:104E30004BF9A069002801D000F046F9012070BDAF
:104E400010B5024800F0E2F810BDC046180F00206F
:104E500030B54B1E012900D1B0E06B4A11780D111D
:104E60002C0030349F2900D9ABE00470012B00D115
:104E7000C7E00F21147821400C003034092900DDEF
:104E8000A1E04470022B00D1BBE051780D112C0041
:104E900030349F2900D999E08470032B00D1B0E011
:104EA0000F21547821400C003034092900DD8FE0B7
:104EB000C470042B00D1A4E091780D112C00303483
:104EC0009F2900D987E00471052B00D199E00F21BB
:104ED000947821400C003034092900DD7DE04471D4
:104EE000062B00D18DE0D1780D112C0030349F2994
:104EF00000D975E08471072B00D182E00F21D478AE
:104F000021400C003034092900DD6BE0C471082B0E
:104F100000D176E011790D112C0030349F2964D82E
:104F20000472092B00D16CE00F21147921400C0090
:104F3000303409295BDC44720A2B62D051790D119F
:104F40002C0030349F2955D884720B2B59D00F2157
:104F5000547921400C00303409294DDCC4720C2BEB
:104F60004FD091790D112C0030349F2900D907348E
:104F700004730D2B45D00F21947921400C0030345F
:104F8000092901DD37310C0044730E2B39D0D1795A
:104F90000D112C0030349F2900D9073484730F2B56
:104FA0002FD0D1790F220A4011003731092A01DCB4
:104FB00030321100C173102B23D010300023037046
:104FC00030BD073451E737310C005AE7073463E747
:104FD00037310C006CE7073475E737310C007EE79A
:104FE000073487E737310C0090E7073498E737310B
:104FF0000C00A0E70734A7E737310C00C4720C2B74
:10500000AFD1C018DAE7C046180F002030B5002530
:1050100089B004000922002101A80095FDF74CF990
:105020000922002105A80495FDF746F94B236A469D
:105030006846137004A90D2200F03EF815210822DD
:1050400020006944FDF73EF909B030BD10B5830773
:1050500027D00378002B26D00300032102E01A7822
:10506000002A1CD001330B42F9D119680F4A104CA9
:105070008A188A4322420FD1043319680B4A8A18CE
:105080008A43224208D104331968084A8A188A439D
:105090002242F1D000E001331A78002AFBD1181A1D
:1050A00010BD0300E1E70020FAE7C046FFFEFEFE68
:1050B00080808080F8B5C04601B40248844601BCB7
:1050C000604700BF8902002001B40248844601BC49
:1050D000604700BFE901002001B40248844601BCDA
:1050E000604700BF4D03002001B40248844601BC64
:1050F000604700BF0901002001B40248844601BC9A
:10510000604700BF5101002001B40248844601BC41
:08511000604700BFC100002050
:1051180048656C6C6F2C20576F726C64210D0A0007
:105128005468697320697320612074657374206200
:10513800696E6172792E00004F6E2D626F61726424
:10514800204C45440000000006005250197CA0B6CF
:105158002851001009005250000000024051001070
:105168004E6F207370696E6C6F636B73206172652C
:1051780020617661696C61626C6500004E6F207514
:10518800736572204952517320617265206176619E
:10519800696C61626C650000486172647761726570
:1051A80020616C61726D20256420616C7265616498
:1051B8007920636C61696D65640000000A2A2A2AF7
:1051C8002050414E4943202A2A2A0A000A0000009A
:1051D80048617264206173736572740052656C650E
:1051E80061736500626F6F74325F77323571303882
:1051F80030000000312E342E300000007069636FDB
:105208000000000070726163000000004A616E20B7
:10521800333120323032330006005250BBFF3CB6E7
:105228000452001006005250E182887FEC510010B1
:1052380006005250D3F07542E45100100D0A0000E8
:105248005541525420737464696E0000554152549C
:10525800207374646F7574005541525420737464DC
:10526800696E202F207374646F75740006005250A5
:1052780053B4F4A16052001008005250920000008C
:105288005D260010612600106D260010992600107A
:10529800952600100000000055534220737464697D
:1052A8006E202F207374646F7574000006005250CE
:1052B80053B4F4A1A0520010526173706265727207
:1052C80079205069000000005069636F00000000F9
:1052D800426F617264204344430000005265736565
:1052E8007400000009025400030100807D080B00CF
:1052F8000202020000090400000102020004052461
:1053080000200105240100010424020205240600EE
:10531800010705810308001009040100020A0000C2
:10532800000705020240000007058202400000094C
:1053380004020000FF00010512010002EF02014013
:105348008A2E0A000001010203010000000000008B
:10535800C0520010D0520010440F0020D852001044
:10536800E4520010556E68616E646C6564204952A1
:105378005120307825780A0065702025642025732F
:105388002077617320616C72656164792061766150
:10539800696C61626C65000043616E277420636FFD
:1053A8006E74696E75652078666572206F6E206907
:1053B8006E616374697665206570202564202573A5
:1053C80000000000EC340010E83600107A360010B7
:1053D8002E36001010360010F83500108C350010ED
:1053E8003A3500102E350010C4390010AA390010C3
:1053F800E6350010423A0010E63500102A3A00104F
:10540800163A0010E6350010023A0010D83900109C
:10541800E6350010C03A0010A63A00109A3A00107B
:10542800E6350010E63500107C3A0010A63A001068
:10543800E6350010E6350010E6350010E6350010B8
:10544800E6350010E6350010E63500105C3A00102D
:1054580025450010A1450010CD450010B1460010AB
:08546800954700100000000050
:10547000505100105C510010B4020010A80200103E
:105480009C02001020520010900200102C520010BC
:10549000385200107452001080520010B4520010A4
:1054A000D02330B500251B0600245D5706E00368B5
:1054B000BFF35F8F1C6081F3108820BF0268EFF399
:1054C000108172B61368002BFCD0BFF35F8F037995
:1054D0007F2BECD905710368BFF35F8F00221A6040
:1054E00081F3108830BDC046030010B50068EFF3AB
:1054F000108472B60268002AFCD0BFF35F8F0422CA
:105500009A56002A0BDB00290FD000200A601B6886
:10551000BFF35F8F00221A6084F3108810BDD02281
:105520001206126801201A71F1E70020EFE7C04669
:10553000F0B5C64600B50C00804600F001F9FA222D
:1055400006000F00200000230021920000F0F0F878
:105550008019794104000D008F422FD82CD0D02320
:105560001B0600261F680CE042461268BFF35F8FDF
:10557000166083F310882000290000F0E9F8002865
:1055800020D143461A68EFF3108372B611680029E0
:10559000FCD0BFF35F8F424612797F2AE4D942469E
:1055A00017711268BFF35F8F0021116083F31088B9
:1055B000012004BC9046F0BD8642D0D9012464424B
:1055C000E517CCE70020F4E70268EFF3108172B62C
:1055D0001368002BFCD0BFF35F8FFF2303710368B8
:1055E000BFF35F8F00221A6081F3108840BF7047BD
:1055F000084810B50378002B0AD180230649074AD2
:105600005B051C68CC5004339342FAD1012303702C
:1056100010BDC0465C0F00206009001000010010A2
:1056200010B5024B0133984710BDC04660090020F9
:10563000054B1A6880239B005340C0229200134000
:10564000024A13607047C0460C8001400C90014034
:10565000034B1A68C0239B009343024A13607047B0
:105660000C8001400C9001401423F0B5D6464F4603
:1056700046469A46814618880433C0B598460E00BF
:105680001B8827491400984753460700188843464B
:1056900024491B88984753460500188843462249E9
:1056A0001B8898478046FFF7A3FFB847A847FFF736
:1056B000BFFF002C1BD0C021220008270220490573
:1056C0003D008B6A1D4018420BD0002C09D0131BE3
:1056D0000D2B1FD84B461B78013C0B6601239C46C3
:1056E000E1442300002D0CD11343002BE8D1FFF738
:1056F000AFFFC047FFF794FF1CBC90469946A246F7
:10570000F0BD002AF1D00B6E013A33701300013660
:105710002343EAE7002DD3D0002AD1D0F3E7C046D7
:105720004946000045580000464300007047C04607
:1057300001B40248844601BC604700BFE521001067
:1057400001B40248844601BC604700BF91130010B9
:1057500001B40248844601BC604700BFED1100104F
:105760001000000000000000000001000000000028
:105770000000000000000200000000000000000027
:105780000000030000000000000000000000FF0017
:105790000000000000B5486801318E4600477046A1
:1057A00009380149884700BD79090010E403002049
:1057B00000000000980400208C0A00200000000077
:1057C000000000009C0A0020000000000000000013
:1057D00010000000000000000000000000000000B9
:1057E000503300004C3300005433000052330000AB
:1057F0004D5300004D43000053340000433400007B
:105800009125001000000000DD25001000000000C0
:1058100000010000A5270010000000003D27001037
:1058200000000000000100007052001050520010F3
:105830006811002010000C000000E0FF1F000000B5
:105840000000000000000000000000000000000058
:10585000000000000000000000000000A92200106D
:1058600041200010F9200010192200103903001007
:04587000414E001095
:04000005100001E9FD
:00000001FF
